:020000040800F2
:10000000B0030020CD010008511F0008531F000855
:10001000571F00085B1F00085F1F0008000000005A
:10002000000000000000000000000000651F000844
:10003000631F000800000000671F0008691F000818
:10004000E30100086B1F00086D1F0008E3010008B2
:100050006F1F0008711F0008E3010008E30100089A
:10006000731F0008751F0008771F0008E3010008D0
:10007000E3010008E3010008E3010008E3010008D0
:10008000E3010008E3010008E3010008891F0008FC
:100090008B1F0008931F0008951F0008971F00087A
:1000A000991F00089B1F00089D1F00089F1F000844
:1000B000A11F0008E3010008A31F0008A51F0008F6
:1000C000A71F0008A91F0008AB1F0008AD1F0008EC
:1000D000AF1F0008B11F0008B31F0008B51F0008BC
:1000E000B71F0008B91F0008BB1F000800F002F886
:1000F00000F05CF80AA090E8000C82448344AAF166
:100100000107DA4501D100F051F8AFF2090EBAE863
:100110000F0013F0010F18BFFB1A43F0010318473B
:100120008C2C0000AC2C00000A444FF0000C10F89E
:10013000013B13F0070408BF10F8014B1D1108BF65
:1001400010F8015B641E05D010F8016B641E01F805
:10015000016BF9D113F0080F1EBF10F8014BAD1C55
:100160000C1B09D16D1E58BF01F801CBFAD505E073
:1001700014F8016B01F8016B6D1EF9D59142D6D3CD
:10018000704700000023002400250026103A28BFF5
:1001900078C1FBD8520728BF30C148BF0B607047F9
:1001A0001FB5AFF300801FBD10B510BD02F0ABF955
:1001B0001146FFF7F5FF00F023F802F0C9F9FFF749
:1001C000F3FF00F0FDF9000030BF000008480047D1
:1001D000FEE7FEE7FEE7FEE7FEE7FEE7FEE7FEE7F7
:1001E000FEE7FEE703480449024A044B704700005B
:1001F000ED000008B0010020B0030020B001002095
:1002000010B5092000F082F9482000F019F801F03B
:100210002AFE01F00DFE00F0D7FF4FF47A7000F0D7
:1002200026F809E00548007830B901200349087034
:100230000121084601F033FEF4E7000079000020B8
:100240004FF0E021096921F004014FF0E022116133
:100250000146C21700EB5272D2101F4B1A7019469A
:1002600009784FF47A7251439A1C118070471A4AE8
:10027000921C128842434FF0E0235A6100229A6197
:1002800001221A6100BF4FF0E022116911F0010F45
:1002900002D011F4803FF6D000224FF0E0231A6123
:1002A0009A6170470C4A127842434FF0E0235A613A
:1002B00000229A6101221A6100BF4FF0E022116909
:1002C00011F0010F02D011F4803FF6D000224FF060
:1002D000E0231A619A61704700000020AC4A0A408E
:1002E0000243AC4B1A607047072323EA0002120254
:1002F000A84B1B1D19684FF6FF031940A64B194365
:1003000011434FF0E023C3F80C1D70472DE9F0476F
:1003100004460D4616461F463046F11706EB91710E
:100320004FEAA109F11706EB91718910A6EB810143
:1003300001F0FF0A042101EBCA0000F0FF0A384671
:10034000FFF7D2FFC7F1040004FA00F80F2038418C
:10035000284040EA080808F00F08202E09DA8F48E4
:1003600000680121B14008434FF0E021C1F80001CD
:100370000BE08A48001D0168A6F120020120904090
:1003800001434FF0E020C0F80411854850F82900DF
:1003900008FA0AF10143824840F82910BDE8F087C5
:1003A00070B50D46CE1701EB9676B310CE1701EB64
:1003B0009676B610A1EB8606B606340E794DAD6979
:1003C00045F00105774EB5614FEAB63555F8236023
:1003D0000F25A540AE43744D45F8236055F82350D2
:1003E00000FA04F63543704E46F823506F4D2E68E0
:1003F00001258D402E436C4D083DC5F8006412F078
:10040000010F09D0694D0C352E6801258D402E4312
:10041000654D083DC5F80C6412F0020F09D0634D1C
:1004200008352E6801258D402E435F4D083DC5F8E7
:10043000086470BD00B500205A490861C8601420E6
:10044000486100208861C8610846006840F00100EA
:1004500008600846406856490840524948600846C6
:100460000068544908404F4908600846006820F475
:10047000802008600846406820F4FE0048600020A4
:10048000886000214FF00060FFF728FF00BD10B525
:1004900040480830006840F004004FF0E021C1F807
:1004A000100D4048C06940F080503E49C861424844
:1004B000406840F48070404948600846006840F059
:1004C000040008600846006840F002000860FFF77A
:1004D0007BFE10BD3048001D2E49091D0860704785
:1004E0000146084649062F4A926942F001022D4B07
:1004F0009A612D4A083A526822F0E0622A4B083B82
:100500005A601A4652680A435A60704730B504462A
:100510000025FFF78FFF2348006840F48030214911
:10052000086000BF1F480068400CFBD04FF480609B
:100530001C494860A01EC4B20846406840EA844096
:1005400048600846406840F4803048601B480068B6
:1005500040F03200194908601248006840F080708D
:100560001049086000BF0F480068400EFBD00D48DE
:10057000406840F002000B49486005E009484068C7
:10058000C0F3870505F00305022DF7D130BD00004B
:1005900080FFFF1F08ED00E00000FA0500E100E029
:1005A00000E400E0001002400800014000040140A7
:1005B0000000FFF8FFFFF6FE007000400020024040
:1005C000014600BF704700BF324A128812F0400F48
:1005D000FAD0C2B22F4B1B1D1A8070472DE9F05F75
:1005E00004460D46280102F080F981462A4904FBA1
:1005F00001F002F07AF98246494602F03FF80646D9
:10060000304602F02DF987B2384602F06EF9834683
:10061000314602F018FA82464FF0834102F06AF93F
:10062000814602F01DF980463F0107EB080087B2C2
:100630001A48806940F004001849886108468069BA
:1006400040F4804088611648006820F47F601549B6
:10065000C1F804080846D0F8040840F40B60C1F85B
:1006600004080E48C06840F480400C49C860084641
:10067000C06820F48040C8600B48A0F8087805489E
:100680000C30008842F20C01084302490C3108800A
:10069000BDE8F09F0038014040420F0000100240CA
:1006A00004080140000001400030014010B504463C
:1006B0002CB90120FA4909680882002010BDF949C7
:1006C000096808688047F64800680A30F6E710B500
:1006D000F3480068C078F4494978884213DCF04850
:1006E0000068807878B9EE480068808858B9EC488E
:1006F0000068C078EA4909688872EA490968486868
:100700008047002010BD0220FCE710B504462CB93C
:100710000120E34909680882002010BDE149096809
:1007200088688047DE4800680C30F6E710B5DC4B7F
:100730001B68D978DA4B1B685879DC4B1B689A69BF
:1007400090470446D6480068807AE8B13CB9D4485E
:100750000068007918B9D2480068807808B1022092
:1007600010BD8CB9CF490968C8688047CC4800687B
:100770004079CB490968C872C9480068C078C8493F
:10078000096808730020EBE70220E9E710B504468A
:100790002CB90220C24909680882002010BD00203F
:1007A000C3490880BE480068007810F07F0F1CD154
:1007B000BB490968487A10F0200F05D0BC49097878
:1007C00041F00201BA4A117010F0400F06D0B8494A
:1007D000097801F0FE01B64A117005E0B4490978C4
:1007E00041F00101B24A11703AE0AD48006800786A
:1007F00000F07F00012801D1AD48CFE7A84800688C
:10080000007800F07F00022828D1A54A12685179AB
:1008100001F00F0011F0800F0FD0A64A02EB80020A
:10082000D2F8002C02F03002102A16D1A04A127819
:1008300042F001029E4B1A700FE09E4A02EB8002CA
:10084000D2F8002C02F44052B2F5805F05D1984AEC
:10085000127842F00102964B1A7001E000209DE7E9
:100860009049096808698047914897E72DE9F04762
:100870008B480068007800F07F0454B9884800680D
:10088000407A00F0DF008649096848720020BDE820
:10089000F087022C7ED182480068408818B98048D1
:1008A0000068007908B10220F1E77F4E7C480068BB
:1008B00090F8058028F080094F4679480068407913
:1008C00010F0800F07D07B4800EB8700D0F8000CB9
:1008D00000F0300506E0774800EB8700D0F8000C08
:1008E00000F440553078484504D91DB16C48006883
:1008F000807A08B90220CAE718F0800F10D06D483E
:1009000000EB8700D0F8000C00F03000102845D133
:10091000F8B201F058F83021F8B200F0F0FE3DE0F6
:10092000644800EB8700D0F8000C00F44050B0F5AC
:10093000805F33D1CFB9604890F82C10F8B201F045
:10094000CCF85C4901EB8701D1F8001C89B24BF669
:100950008F7201EA020080F4805080F40050554903
:1009600001EB8701C1F8000C18E0F8B201F012F8B1
:10097000504901EB8701D1F8001C89B24BF68F7208
:1009800001EA020080F4805080F40050494901EBF4
:10099000870100E008E0C1F8000C00BF4149096888
:1009A00048698047002072E700BF02206FE72DE909
:1009B000F0413B480068447924F0800635463848C9
:1009C0000068407910F0800F07D03A4800EB8500AE
:1009D000D0F8000C00F0300706E0364800EB850048
:1009E000D0F8000C00F440572F480078A84208D9EE
:1009F0002B480068408820B91FB129480068807AD8
:100A000010B90220BDE8F08114F0800F12D02949FE
:100A100001EB8501D1F8001C89B248F6BF7201EAEA
:100A2000020080F0100000BF224901EB8501C1F8EF
:100A3000000C12E01F4901EB8501D1F8001C89B2BE
:100A40004BF68F7201EA020080F4805000BF194912
:100A500001EB8501C1F8000C00BF124909688869E3
:100A600080470020CEE710B50D480068407A40F07E
:100A700020000B49096848720A490968C86980471B
:100A8000002010BD10B5024605480068438AAAB987
:100A90008888C01A024C24682082002010BD000003
:100AA0000C000020180000207C0000201000002016
:100AB0000600002000500040800000200868184414
:100AC000ECE72DE9F041FF48006800F110042588AB
:100AD000A068C0B1BDB1A688AE4200D92E46B0B262
:100AE000A168884707462088801B208060883044A2
:100AF0006080002000F0C4FF8046B2B20146384654
:100B000000F099FD00BF208850B14FF44050EE49ED
:100B100008800021084600F0BFFF3020EB49088024
:100B20002088A188884204DB0320E649096808720E
:100B300018E02088002804DD0520E24909680872D1
:100B400010E0208870B90620DE490968087200218B
:100B5000DF48006880B2801CDE4A42F81010302066
:100B6000DA490880BDE8F0812DE9F047D5480068F2
:100B700000F110042588D3480068067AD5B9042E00
:100B800018D1D548007801280FD10021D04800683D
:100B900080B2801CCF4A42F810103020CB49088028
:100BA00000BF0020CC49087003E007261020C74989
:100BB000088027E0A788BD4201D8042000E0022079
:100BC0000646AF4200D92F46B8B2A1688847804692
:100BD000002000F04AFF8146BAB20146404600F0CC
:100BE00011FDB9B2002000F057FF2088C01B208003
:100BF0006088384460803020B44908800002B249DF
:100C0000088000BFAF4909680E72BDE8F08770B573
:100C10000224AC4800684578AA480068007810F0C3
:100C20007F0F4AD1092D03D1FFF751FD044665E03E
:100C3000052D14D1A3480068C0787F280BDCA1489B
:100C40000068807838B99F480068808818B99D4846
:100C50000068807A08B108266BE000244EE0032D7E
:100C600014D198480068C07801280DD195480068D3
:100C7000808848B993480068407A10F0200F03D06C
:100C8000FFF7F1FE044639E0022437E0012D35D1AB
:100C90008C480068C07801280DD18A480068808897
:100CA00048B988480068407A10F0200F03D0FFF759
:100CB000DDFD044622E0022420E08248006800783E
:100CC00000F07F00012805D10B2D17D1FFF72EFD75
:100CD000044613E07B480068007800F07F0002289B
:100CE0000BD1012D03D1FFF7C1FD044606E0032D12
:100CF00004D1FFF75CFE044600E002244CB17748C3
:100D000000684169E8B288470446032C01D10926EE
:100D10000FE00CB108260CE0062600216C480068A4
:100D200080B2801C6B4A42F810103020674908805E
:100D300000BF644909680E7270BD2DE9F05F61481B
:100D4000006846780024A146062E1AD15D48006846
:100D5000007810F07F0F13D15A490968887801286C
:100D600003D15E490968CC690AE0022803D15B49D6
:100D700009680C6A04E0032802D1584909684C6AE2
:100D800099E0002E67D14F4800684088002862D162
:100D90004C480068C08802285DD14A480068007944
:100DA000002858D147480068007810F07F0F06D11E
:100DB00044480068808810B9AFF22F647BE0414856
:100DC0000068007800F07F00012811D13D490968D2
:100DD0004879424909688A690021904700286AD108
:100DE00038480068807A002865D0AFF25F6462E01E
:100DF00034480068007800F07F0002285BD1314859
:100E00000068407900F00F072E480068407900F034
:100E100070082C480068407910F0800F07D03048E7
:100E200000EB8700D0F8000C00F0300A06E02C48F8
:100E300000EB8700D0F8000C00F4405A29480078F5
:100E4000B84238D9B8F1000F35D1BAF1000F32D01D
:100E5000AFF2C7642FE0082E08D11A480068007866
:100E600010F07F0F27D1AFF2BB7424E00A2E22D1FD
:100E700014480068007800F07F0001281BD1114859
:100E80000068807AB8B10F480068408898B90D486A
:100E90000068007978B90B480068C08801280AD139
:100EA0000849096848790D4909688A69002190470D
:100EB00008B9AFF2A974ECB102480068A0F812902A
:100EC000004811E00C0000201C0000201E00002043
:100ED000505C004000600040040000201000002032
:100EE000005000407C000020006884610020A04782
:100EF00000250FE0A94A12685078A94A12681169C2
:100F000088470546032D05D10920A44909680872C0
:100F1000BDE8F09FA1480068008AA0F57F41FF3935
:100F200004D109209D4909680872F1E7022D03D018
:100F30009A480068008A20B9082098490968087210
:100F4000E6E796480068007810F0800F3BD09348A1
:100F50000068B0F806B091480068008A584504D986
:100F60008E490968A1F810B023E08C480068008A17
:100F70008A490968C98888421BDA88480068008A5B
:100F80008749096891F82C10884203DA00208549C6
:100F900008700EE081480068008A8149096891F86C
:100FA0002C1090FBF1F201FB120010B901207D49D9
:100FB00008707B48006890F82C107848006881829F
:100FC000FFF7D2FD06E003207449096808720003A8
:100FD000754908809CE710B5744890F82C100020E3
:100FE00000F07BFD6D480068007A082805D14002BA
:100FF0006D49088010206E49088068480068007AB2
:10100000092801D1012000E00020C0B210BD08B5C0
:101010006848006880B2001D674951F8100080B22E
:1010200001EB400000905D480068007A09282FD04D
:10103000009800785949096808700098401C009091
:10104000009800785549096848700098401C009045
:101050000098801C0090009931F8020B009100F07C
:10106000DBFE4E49096848800098801C009000997A
:1010700031F8020B009100F0CFFE484909688880E2
:101080000098801C00900098008844490968C88036
:10109000012042490968087240480068C08810B9B8
:1010A000FFF7B5FD01E0FFF748FEFFF794FF08BD2D
:1010B00030B5424B1A78002112E0CBB2404C04EB21
:1010C0008303D3F8003C9BB248F68F742340CCB224
:1010D0002343CCB23A4D05EB8404C4F8003C491CD0
:1010E0009142EAD340F08003324C241F236030BD8C
:1010F00010B52A480068047A022C01D0042C05D1CE
:10110000FFF732FD25480068047A1CE0062C19D14F
:1011100022480068407805280ED1204800680078F1
:1011200010F07F0F08D11D490968C878FFF7C0FF8C
:1011300024490968086A804719490968886880470E
:10114000082400E00824154909680C72FFF743FFE2
:1011500010BD10B511480068047A032C01D0052C8D
:1011600005D1FFF7AEFC0D480068047A0EE0072CAD
:1011700005D10B490968C8688047082406E0022C9D
:1011800001D0042C01D1082400E008240349096897
:101190000C72FFF720FF10BD704700000C0000200C
:1011A00010000020040000201C000020800000200F
:1011B0001E000020505C0040006000407C000020C9
:1011C000005000401800002010B508480849086089
:1011D000022009680872074807490860074808495B
:1011E0000860054909680868804710BD340100207F
:1011F0000C0000208000002010000020B000002023
:101200001800002010B500248AE147F6FF70F54968
:101210000860F548008800F00F00F449087008469F
:10122000007800287ED1EF484438006800F4405030
:10123000EF490880EF48D0F8000C00F03000EE498C
:101240000880E8494439096889B24BF68F7201EA8F
:10125000020000BF80F40050E24944390860E549CB
:10126000D1F8001C89B248F6BF7201EA020000BF43
:1012700080F02000DB4944390860DB48008810F02A
:10128000100F3DD10846006880B248F60F71084043
:10129000D849C1F8000CFFF72BFFD249443909683F
:1012A00089B24BF68F7201EA0200D149098811F424
:1012B000805F01D080F48050CD49098811F4005F2F
:1012C00001D080F40050C74944390860C949D1F8B9
:1012D000001C89B248F6BF7201EA0200C6490988BB
:1012E00011F0100F01D080F01000C349098811F0EF
:1012F000200F01D080F02000BA494439086010BDA9
:10130000B8484438006884B214F0800F40D0B54823
:101310004438006880B248F60F710840B549C1F8FA
:10132000000C00E0BAE0FFF7E3FEAE49443909687B
:1013300089B24BF68F7201EA0200AD49098811F4B7
:10134000805F01D080F48050A949098811F4005FC2
:1013500001D080F40050A34944390860A549D1F870
:10136000001C89B248F6BF7201EA0200A24909884E
:1013700011F0100F01D080F010009F49098811F082
:10138000200F01D080F02000964944390860B6E76C
:1013900014F4006F3FD0934844380068C0F30E0047
:1013A00048F68F7108409349C1F8000CFFF72FFEF3
:1013B0008C494439096889B24BF68F7201EA020000
:1013C0008B49098811F4805F01D080F480508849EE
:1013D000098811F4005F01D080F40050814944393C
:1013E00008608449D1F8001C89B248F6BF7201EA4E
:1013F00002008149098811F0100F01D080F010001F
:101400007D49098811F0200F01D080F02000754936
:101410004439086073E714F4004F7DD071484438B4
:101420000068C0F30E0048F68F7108407149C1F89A
:10143000000CFFF78EFE6B494439096889B24BF600
:101440008F7201EA02006A49098811F4805F01D0B5
:1014500080F480506649098811F4005F01D080F45F
:1014600000506049443908606249D1F8001C89B2D3
:1014700048F6BF7201EA02005F49098811F0100FB7
:1014800001D080F010005C49098811F0200F01D0D4
:1014900080F0200053494439086030E75348007811
:1014A000544901EB8000D0F8000C84B214F4004FD2
:1014B00018D04E48007801EB8000D0F8000CC0F343
:1014C0000E0048F68F71084048490978494A02EBF6
:1014D0008101C1F8000C45490978491E474A52F874
:1014E0002100804714F0800F1AD04048007841490D
:1014F00001EB8000D0F8000C80B248F60F71084074
:101500003A4909783B4A02EB8101C1F8000C37499E
:101510000978491E3A4A00E002E052F8210080476B
:101520003048006880B23049088010F4004F7FF4E2
:101530006CAEE4E610B500244AE047F6FF70294996
:1015400008602948008800F00F0028490870084604
:101550000078284901EB8000D0F8000C84B214F424
:10156000004F19D02148007801EB8000D0F8000C22
:10157000C0F30E0048F68F7108401C4909781D4AD7
:1015800002EB8101C1F8000C18490978491E1B4A79
:1015900052F8210080471BE014F0800F18D0134848
:1015A0000078144901EB8000D0F8000C80B248F6B6
:1015B0000F7108400D4909780E4A02EB8101C1F80C
:1015C000000C0A490978491E0D4A52F8210080474B
:1015D0000448006880B20449088010F4004FACD180
:1015E00010BD0000445C00407A000020080000208C
:1015F0001C000020005000401E0000205C00002065
:1016000040000020F0B502F1010C4FEA6C03DFF856
:1016100048E00EEB41071C460AE00678401C90F8B3
:1016200000C046EA0C2527F8025BBF1C401C641E64
:10163000002CF2D1F0BDF0B5561C7310064F07EB2D
:1016400041051C4604E080CD20F8017B401C641E4F
:10165000002CF8D1F0BD000000600040F94908609E
:101660007047F848006880B27047F649091D086065
:101670007047F448001D006880B27047F148083098
:10168000006880B27047EF490C3108607047ED4840
:101690000C30006880B270474FF6F8710140E94A9B
:1016A000103211607047E7481030006880B2704710
:1016B000E54A02EB8002C2F8001C70470146E2488E
:1016C00000EB8100D0F8000C80B27047DE4A02EBDC
:1016D0008002D2F8002C92B248F68F131A400A43C7
:1016E000D94B03EB8003C3F8002C70470146D64862
:1016F00000EB8100D0F8000C00F4C060704710B51A
:10170000D14B03EB8003D3F8003C9BB248F6BF7487
:1017100003EA040211F0100F01D082F0100211F060
:10172000200F01D082F02002C74B03EB8003C3F8E7
:10173000002C10BD10B5C44B03EB8003D3F8003C64
:101740009BB24BF68F7403EA040211F4805F01D060
:1017500082F4805211F4005F01D082F40052BA4B3F
:1017600003EB8003C3F8002C10BD10B502460B46F6
:101770001046FFF7A3FF0446012B07D124F4805045
:10178000B14901EB8201C1F8000C08E0022B06D13F
:1017900024F01000AC4901EB8201C1F8000C10BD2F
:1017A0000146A94800EB8100D0F8000C00F03000A1
:1017B00070470146A44800EB8100D0F8000C00F40B
:1017C00040507047A04A02EB8002D2F8002C92B23F
:1017D00048F6BF7302EA030181F0100181F0200195
:1017E000994A02EB8002C2F8001C7047964A02EB4D
:1017F0008002D2F8002C92B24BF68F7302EA0301FA
:1018000081F4805181F400518F4A02EB8002C2F8CA
:10181000001C70478C4901EB8001D1F8001C89B293
:1018200041F4807148F68F721140874A02EB8002C2
:10183000C2F8001C7047844901EB8001D1F8001CFC
:1018400089B248F68F6211407F4A02EB8002C2F8EB
:10185000001C70477C4901EB8001D1F8001C89B263
:1018600048F68F621140784A02EB8002C2F8001CF1
:101870007047754901EB8001D1F8001C89B241F431
:10188000807148F68F7211406F4A02EB8002C2F8F5
:10189000001C70476C4901EB8001D1F8001C89B233
:1018A00041F4807148F68F721140674A02EB800262
:1018B000C2F8001C7047644901EB8001D1F8001C9C
:1018C00089B248F68F6211405F4A02EB8002C2F88B
:1018D000001C704701465C4800EB8100D0F8000C0A
:1018E00000F03000102801D1012000E0002080B27B
:1018F00070470146544800EB8100D0F8000C00F41A
:101900004050B0F5805F01D1012000E0002080B29E
:1019100070474D4901EB8001D1F8001CC1F30E0165
:1019200048F68F721140484A02EB8002C2F8001C50
:101930007047454901EB8001D1F8001C89B248F697
:101940000F721140404A02EB8002C2F8001C70473F
:101950003D4901EB8001D1F8001C89B248F68F7235
:10196000114041F48041384A02EB8002C2F8001C69
:101970007047354901EB8001D1F8001C89B248F667
:101980008F72114041F040012F4A02EB8002C2F8F1
:10199000001C70472C4901EB8001D1F8001C11F4A8
:1019A000804F0FD0284901EB8001D1F8001C89B28B
:1019B00048F68F72114041F48041234A02EB8002C5
:1019C000C2F8001C7047204901EB8001D1F8001CCF
:1019D00011F0400F0FD01C4901EB8001D1F8001C21
:1019E00089B248F68F72114041F04001164A02EB6D
:1019F0008002C2F8001C7047134A02EB8002D2F842
:101A0000002C92B248F68F731A400A430E4B03EB38
:101A10008003C3F8002C704701460B4800EB81009F
:101A2000D0F8000C00F00F00704710B54A105200BB
:101A3000044B10331B689BB203EBC003034C44F808
:101A4000132010BD405C004000500040006000408A
:101A500010B54A105300F34A126892B202EBC0026A
:101A6000121DF14C44F8123010BD0146ED480068DB
:101A700080B200EBC100EC4A52F8100080B270470F
:101A80000146E848006880B200EBC100001DE64A4C
:101A900052F8100080B27047E24A126892B202EB2C
:101AA000C002921CE04B43F8121070473E290BDD38
:101AB0004A1111F01F0F01D1531E9AB24FF4004387
:101AC00043EA8223036007E04A1011F0010F01D0BE
:101AD000531C9AB293020360704710B5D14A126842
:101AE00092B202EBC002921DCF4C04EB42033E299E
:101AF0000BDD4A1111F01F0F01D1541EA2B24FF499
:101B0000004444EA82241C6007E04A1011F0010FEF
:101B100001D0541CA2B294021C6010BD0146C14801
:101B2000006880B200EBC100801CBF4A52F8100070
:101B3000C0F3090070470146BA48006880B200EB64
:101B4000C100801DB84A52F81000C0F30900704768
:101B500030B54B105B00B34C2468A4B204EBC00456
:101B6000B14D45F8143053105C00B04BD3F8503CE5
:101B70009BB203EBC0031B1D45F8134030BD10B5ED
:101B80004A105200A74B1B689BB203EBC003A64C44
:101B900044F8132010BD10B54A105300A14A126832
:101BA00092B202EBC002121D9F4C44F8123010BDDD
:101BB00001469C48006880B200EBC1009A4A52F886
:101BC000100080B2704701469648006880B200EB72
:101BD000C100001D944A52F8100080B2704730B521
:101BE00001291FD18F4C2468A4B204EBC004A41CAB
:101BF0008D4D05EB44033E2A0BDD541112F01F0FEF
:101C000001D1651EACB24FF4004545EA84251D6044
:101C100007E0541012F0010F01D0651CACB2A50210
:101C20001D600AE0022908D17E4B1B689BB203EBC2
:101C3000C0039B1C7C4C44F8132001291FD1794C14
:101C40002468A4B204EBC004A41D774D05EB440343
:101C50003E2A0BDD541112F01F0F01D1651EACB2EC
:101C60004FF4004545EA84251D6007E0541012F04A
:101C7000010F01D0651CACB2A5021D600AE002296B
:101C800008D1684B1B689BB203EBC0039B1D664CDD
:101C900044F8132030BD30B501291FD1614B1B68BA
:101CA0009BB203EBC0039B1C5F4D05EB43043E2A34
:101CB0000BDD531112F01F0F01D15D1EABB24FF4BB
:101CC000004545EA8325256007E0531012F0010F17
:101CD00001D05D1CABB29D0225600AE0022908D14B
:101CE000504B1B689BB203EBC0039B1C4E4C44F84B
:101CF000132030BD30B501291FD14A4B1B689BB260
:101D000003EBC0039B1D484D05EB43043E2A0BDD4E
:101D1000531112F01F0F01D15D1EABB24FF40045FD
:101D200045EA8325256007E0531012F0010F01D02A
:101D30005D1CABB29D0225600AE0022908D1394B37
:101D40001B689BB203EBC0039B1D374C44F8132068
:101D500030BD01463348006880B200EBC100801CF2
:101D6000314A52F81000C0F30900704701462D486F
:101D7000006880B200EBC100801D2B4A52F81000B1
:101D8000C0F30900704701462648006880B200EBA6
:101D9000C100801D244A52F8100010F47C4F01D07D
:101DA000012070471F48006880B200EBC100801C12
:101DB0001D4A52F810008005800D01D00220F0E786
:101DC0000020EEE7012910D1184A02EB8002D2F878
:101DD000002C92B248F68F731A4042F04002134B27
:101DE00003EB8003C3F8002C11E002290FD10F4A46
:101DF00002EB8002D2F8002C92B248F68F731A40A0
:101E000042F48042094B03EB8003C3F8002C704777
:101E1000024641EA022070470146CAB20B1243EA69
:101E200002207047505C00400060004000500040BD
:101E30003F48406820F480003D4948600846C0693A
:101E400040F40000C861704703203A4908607047B9
:101E50003948817A19B10521364A116002E0012121
:101E6000344A1160704710B53448006840F480204F
:101E70003349C1F800040846D0F8080440F4802033
:101E8000C1F808040223142200210120FEF73EFAC3
:101E900002232A2200210846FEF738FA10BD7CB53D
:101EA00004460D466846002213460CC08DF80040DB
:101EB0008DF803509DF8000060B90120FFF7D5FDB3
:101EC0000646082201466846FFF79CFB0120FFF703
:101ED00079FC0BE00220FFF7C8FD0646052201460B
:101EE0006846FFF78FFB0220FFF76CFC7CBD10B546
:101EF000144B1868144BD3F8EC17124B08331A68BC
:101F0000A8B1124CA070030A2371030CA371030E35
:101F10002372A1720B0A23730B0CA3730B0E237491
:101F2000A274130A2375130CA375130E237610BD28
:101F3000001002402C010020340100200004014068
:101F400000000140E8F7FF1F00F0FF1F2000002005
:101F5000704700BFFEE700BFFEE700BFFEE700BF1F
:101F6000FEE770477047704770477047704770478B
:101F700070477047704770477047704770477047A9
:101F80007047704770477047704710B500F032F8DF
:101F900010BD704770477047704770477047704773
:101FA0007047704770477047704770477047704779
:101FB000704770477047704770470C48006840F49E
:101FC00080200B49C1F81404704770477047704770
:101FD0007047704770477047704770477047704749
:101FE000704770477047704770477047140401404E
:101FF0000000014010B53D4800683D490880084692
:10200000008800F480603B490988084206D04FF6FA
:10201000FF303649086038494868804734480088AE
:1020200000F4005033490988084203D04DF6FF7090
:102030002E4908602E48008800F480502D490988F8
:10204000084206D04EF6FF7028490860002000F0D4
:10205000F7F92748008800F40060264909880842FB
:102060000CD02648007810B100F0C6F902E002203A
:1020700000F0E6F94FF2FF701C4908601C48008828
:1020800000F400701B490988084208D04FF6FF5041
:10209000164908601A480078401C1949087014480D
:1020A000008800F4807013490988084206D04FF672
:1020B000FF600E490860072000F0C2F90C48008854
:1020C00000F400400B490988084201D0FFF79AF854
:1020D00010BD00200B490870704700200A490870A5
:1020E000704710B50120FFF781FB10BD445C004034
:1020F0007A0000201600002080000020300100201F
:102100003C000020780000207900002010B5FFF787
:10211000EEFE002095490968887200F047F900201A
:10212000934908604FF43F40924908800846008870
:102130009149C1F8400C00209049086010BD10B5CD
:1021400000208A490968887288490968C8728C48E1
:10215000C0798649096848720020FFF79DFA4FF45C
:1021600000710020FFF7B2FA10210020FFF7C7FA34
:1021700018210020FFF76CFC58210020FFF755FCC8
:102180000020FFF767FB7F4890F82C100020FFF736
:10219000A4FC0020FFF72AFB4FF4C0610120FFF7E9
:1021A00095FA4FF480710120FFF73FFC08210120D0
:1021B000FFF772FC20210120FFF7A1FA4FF488718C
:1021C0000120FFF745FC02210120FFF786FC4FF4B8
:1021D00040510120FFF7AEFA4FF4C0610220FFF733
:1021E00075FA4FF490710220FFF71FFC05210220C1
:1021F000FFF752FC20210220FFF781FA01205F49FE
:1022000008600020FEF754FF10BD7047704770470C
:102210007047014629B90120544A126810820020F3
:1022200070475948FCE710B5044658492046FEF768
:1022300029FC10BD10B5044655492046FEF722FC86
:1022400010BD10B50446012052490870524920467D
:10225000FEF718FC10BD10B5044650492046FEF7A5
:1022600011FC10BD70B505460024062D29D13F484C
:102270000068007800F07F00012822D13B48006808
:10228000407902281DDA394800688078222809D16F
:1022900036480068407910B9AFF245041CE0AFF24F
:1022A0005D0419E0314800688078212814D12F4856
:1022B0000068407910B9AFF283040DE0AFF29904E1
:1022C0000AE02A480068007800F07F00212803D146
:1022D000032D01D1AFF2C5040CB9022070BD234813
:1022E0000068846100212148006841820020A047E5
:1022F0000020F3E71D480068C178234801600020F2
:10230000704700B5024619480068007800F07F0069
:10231000212804D10B2A02D1FFF7ECFF00BD0220D7
:10232000FCE710B504461E492046FEF7ABFB10BD86
:1023300010B504461B492046FEF7A4FB10BD70B53E
:1023400004460A480068C578174800EBC5012046D6
:10235000FEF798FB70BD0246002901DD02207047A0
:10236000002A01DD0220FAE70020F8E70C00002037
:10237000445C004016000020005000402C0100206A
:10238000AC2C00088000002028010020FC00002068
:10239000EC00002024010020F4000020E4000020D4
:1023A000D4000020DC0000200401002001214F485F
:1023B000016000204E4A1080104600884D4AC2F845
:1023C000400C0020494A121D10604FF4E050484A6A
:1023D000108010460088474AC2F8400C0020704721
:1023E00001204249086000204249C1F8440C032002
:1023F0003E4908600020704710B53C48006884B230
:1024000044F008043B48C0F8404C3848006884B2A7
:1024100044F004043748C0F8404CFFF715FD10BDE8
:1024200010B53248006884B224F004043148C0F882
:10243000404CFFF70DFD4FF43F402C49086010BDA4
:1024400070B50446072C01D02B4804702A48007848
:10245000082843D2DFE800F0040A1016212F434475
:10246000FFF7DEFF0620244908703DE0FFF7D8FFA4
:1024700004202149087037E002201F4948700320DA
:10248000087031E01C484078401E1B4948700846DF
:10249000407808B90420087026E01448006885B226
:1024A00045F010051348C0F8405C0520124908703B
:1024B0000A20487018E010484078401E0E494870C5
:1024C0000846407848B90948006885B225F01005EB
:1024D0000848C0F8405C0620087005E000BF00BF57
:1024E00006200549087000BF00BF70BD405C004079
:1024F0001600002000500040310100207047704756
:10250000704770477047754600F028F8AE460500E2
:102510006946534620F00700854618B020B5FDF700
:1025200061FEBDE820404FF000064FF000074FF07D
:1025300000084FF0000B21F00701AC46ACE8C009E1
:10254000ACE8C009ACE8C009ACE8C0098D467047EA
:102550000446AFF300802046FDF731FE0048704787
:102560005001002090EA010F48BF81F0004100F1C6
:102570007C82421A3CBF801A89184FEAD0524FF031
:102580007F4C1CEA410FA2EBD15318BF9CEA026FAB
:1025900000F040804FF0004C4CEA00204CEA012152
:1025A00021FA03FC10EB0C0C23D202F1FF325FEA9C
:1025B0001C2040EBC25038BF70471CF07F0F4FEA21
:1025C000400C18BFBCF17F4F38BF7047C3F12003E8
:1025D000994008BF20F00100BCF17F4F38BF704721
:1025E000A0F1C0404FF0FF0141EAD0514FEAC15085
:1025F00070474FEA3C00000A40EBC25028BF1CF075
:10260000FF0F4FEA400CE1D018BFBCF17F4F38BF3D
:102610007047E5E79CEA026F05D010EA5C0F08BF3F
:1026200000F000407047BCEB410F4FEA400228BF6A
:102630009445DFF828C0C0F01580AFF30080B2EBFE
:10264000410F05D012F1807F08BF704708467047E0
:1026500090EA010F58BF704701487047010000041D
:102660000000C07F014800F0CEBA00000000C07F2B
:10267000014800F0C8BA00000000C07F4FF47F0C92
:102680001CEAD0121EBF1CEAD11392EA0C0F93EA87
:102690000C0F00F0A58090EA010F48BF42F4807251
:1026A00040F4000C41F400002CF07F4120F07F400A
:1026B00000B58142A2EB03020FF2401CACEB504E7E
:1026C000C0F100009EF800E04FEA4E0E00FB0EFC49
:1026D00038BF49004FEA2C1C02F5FA020CFB0EF33E
:1026E0004FEACE1E4FEA112C4FEAC1210EEB635E7A
:1026F0000EFB0CFC4FEA1C5300FB03114FEA112C9C
:102700004FEA01310EFB0CFC02F4807E42EB2242C8
:102710004FEADC4C00FB0C11C14228BF09184CEBFE
:102720000333012924BF4EF0020E4EF0804E10EB11
:10273000410F24BF4EF0010E4EF0804E08BF4EF008
:10274000040E4EF008015DF804EB43EBC25018BFD5
:10275000B2F57C0F38BF704741EAC07108BF20F066
:102760000100B2F57C0F38BF704729D512F0F00F89
:102770001CBF00F1C04000F0004070470081828320
:102780008485868788898B8C8D8E8F919293959680
:1027900097999A9C9D9FA0A2A3A5A7A8AAACAEB00A
:1027A000B2B3B5B7B9BCBEC0C2C5C7C9CCCED1D40F
:1027B000D7D9DCDFE2E6E9ECF0F3F7FAFE0000003F
:1027C0004FEA400C0CF1807CBCF17E4F28BF704773
:1027D000B0F1C0404FF07F404CBF40104008704700
:1027E00090EA010F0CEAD11348BF42F480726245AF
:1027F00038BF634507D213F47F0F23D080EA01006E
:1028000000F0004070474FF0807C1CEB400F98BFF9
:102810001CEB410FDFF840C03FF624AFAFF3008060
:102820004FF0807C1CEB400F02BF1CEB410F0B48AC
:1028300070471CEB410F0CBF002020F0004040EA25
:10284000C250704712F47F0F04BF0448704742F033
:10285000FF004FEAC0507047040000040000C07F32
:10286000C2154FEA002318BF43F0004305D4D2F14C
:102870009E020AD323FA02F070474FEA4001B1F1F9
:10288000FE4F02D24FF000007047DFF828C04FEA39
:102890004001B1F17F4F88BF4CF4803C3FF6E8AE79
:1028A0001CBF6FEAE0707047AFF300806FEAE07022
:1028B000704700006800020410F0004218BF404258
:1028C00042F08042B0FA80F18840A2EBC15202F19E
:1028D000786208BF7047410642EB202018BF5FF0C6
:1028E000806C28BF20F0010070474FF08042FFF756
:1028F000E9BF00004FF47F0C1CEAD0121EBF1CEA97
:10290000D11392EA0C0F93EA0C0F00F04A8090EA80
:10291000010F48BF42F480724FF0004C4CEA002097
:102920004CEA01211A44A0FB01C3A2F50002BCF14C
:10293000000F18BF43F0010302F4807CB3F1004F95
:1029400038BF5B0042EB2242180A40EBC25028BF5E
:1029500013F07F0F18BFB2F57C0F38BF704708BF68
:1029600020F00100B2F57C0F38BF70470BD582F024
:10297000FF0212F5803FC8BF704700F1C040D8BFCA
:1029800000F00040704700F5000C5FEA4C0C48BFB7
:102990007047B0F1C0404FF07F404CBF401040083E
:1029A000704790EA010F0CEAD11348BF42F48072DD
:1029B000624538BF634504D280EA010000F0004060
:1029C00070474FF0807C1CEB400F98BF1CEB410F11
:1029D0004FF0030C4CF0806C3FF644AEAFF3008038
:1029E00012F47F0F1FBF13F47F0F42F0FF02D005D8
:1029F00070470148704700000000C07F10B412F417
:102A00007F0F4FEA00204FEA012110D1B0FA80F485
:102A100000FA04F0A2EB044213F47F0F02F58032B7
:102A200018BF41F0004100D010BC18BF604740F013
:102A30000040B1FA81F401FA04F1A3EB044310BCA5
:102A400003F58033604780F0004090EA010F7FF586
:102A500090AD81F0004100F008B8000090EA010F4D
:102A600048BF81F000413FF584AD421A3EBF82F07D
:102A70000042801A89184FEAD0524FF07F4C1CEA6E
:102A8000410FA2EBD15318BF9CEA026F4FD04FF019
:102A9000004C4CEA00204CEA012121FA03FCB0EB87
:102AA0000C0C0FD412F0FE0F18BF5FEA4C001DD5BE
:102AB000001240EBC25038BF70471CF03F0F18BFE8
:102AC00070470BE0A2F101025FEA1C2040EBC2500C
:102AD00038BF70471CF07F0F18BF7047C3F1200349
:102AE000994014BF401E20F0010070474FEA1223A6
:102AF00016D0004204BF002070474FEA9000B0FAA1
:102B000080FCA2EB0C02CCF1280C60FA0CF093EAEA
:102B1000122F04BF00EBC25070474FEAC3707047DA
:102B20005FEADC1008BF70474FEAC37070479CEA49
:102B3000026F04D010EA5C0F08BF00207047BCEBA6
:102B4000410F4FEA400228BF9445DFF82CC0FFF444
:102B500089ADAFF30080B2EB410F06D012F1807F58
:102B600008BF704781F00040704790EA010F48BFEE
:102B70007047024870470000020000040000C07F58
:102B800000F0004343EAD05323F48073C3F1C10340
:102B900023F0004117291FD8C3F1200310FA03F1D5
:102BA000C3F1200320F07F4040F4000020FA03F03E
:102BB00003F0004340EA03000DD00B46590009D34F
:102BC00018BF401C06D17FEAE27398BF401C38BF93
:102BD00020F0010070477047182903EB912318BFBC
:102BE0006FF00041013168BF03F0004009D6400298
:102BF00003F0004000F1010004BF12F0004F20F08C
:102C00000100704770470CF00F03092B08BF082024
:102C100000F02B800A2B0BD0082B18BF704708BF81
:102C20001CF0400F0AD04FF000004FF00001704739
:102C30001CF0400F18BF4FF0004070471CF0100F01
:102C400008D020F0704300F07F4242EAD3014FEAFF
:102C50004370704700F0604021F07F4242EA00027A
:102C600001F07F4040EA727070471CF4801F11D061
:102C70001CF4E02F03D06FEACC31490070474FF0CD
:102C80004050EFF3008222F0704242EA000282F3E9
:102C9000008870474FF000007047120100020000EA
:102CA000004011111111000201020301090242004A
:102CB0000201008032090400000203010100092121
:102CC00010012101223F000705810310000A0705BA
:102CD000010310000A090401000103010200092197
:102CE000100121012236000705820340000A050178
:102CF0000906A101050719E029E71500250175015D
:102D000095088102950175088103950575010508EF
:102D1000190129059102950175039103950675081E
:102D2000150025650507190029658100C005010901
:102D300002A10185010901A1000509190129031555
:102D40000025019503750181029501750581030533
:102D5000010930093109381581257F7508950381EE
:102D600006C0C0040309042603530054004D006943
:102D700000630072006F0065006C00650063007402
:102D80000072006F006E006900630073001E035341
:102D90000054004D003300320020004A006F0079DB
:102DA0000073007400690063006B0000CC2D000804
:102DB0000000002034010000280100085C2E0008FB
:102DC000340100207C020000840100080120141A54
:102DD00003531254124D12331232123102113013B6
:102DE000D3201B08DB040B109911040A15E31829E2
:102DF0000441230301130D211B083F04130F221B61
:102E00000811041A65041303231B0857041A23042A
:102E10001A31041A3F04413240293C1A0B24091686
:102E2000581A0D1C139A2C3308121AAC0832421A85
:102E3000EE08323F1ABE083209132D2D3308365AD8
:102E4000DE101A631032041A670832261A8D08320F
:0C2E50001E1A2003F21A19B31100000032
:04000005080000ED02
:00000001FF
